{
  "contractName": "c",
  "abi": [
    {
      "constant": true,
      "inputs": [],
      "name": "recordOwner",
      "outputs": [
        {
          "internalType": "address",
          "name": "",
          "type": "address"
        }
      ],
      "payable": false,
      "stateMutability": "view",
      "type": "function"
    },
    {
      "constant": false,
      "inputs": [],
      "name": "PatientRecord",
      "outputs": [],
      "payable": false,
      "stateMutability": "nonpayable",
      "type": "function"
    },
    {
      "constant": true,
      "inputs": [],
      "name": "getPatient",
      "outputs": [
        {
          "internalType": "string",
          "name": "name",
          "type": "string"
        },
        {
          "internalType": "int256",
          "name": "age",
          "type": "int256"
        },
        {
          "internalType": "string",
          "name": "gender",
          "type": "string"
        }
      ],
      "payable": false,
      "stateMutability": "view",
      "type": "function"
    },
    {
      "constant": false,
      "inputs": [
        {
          "internalType": "string",
          "name": "_name",
          "type": "string"
        },
        {
          "internalType": "int256",
          "name": "_age",
          "type": "int256"
        },
        {
          "internalType": "string",
          "name": "_gender",
          "type": "string"
        }
      ],
      "name": "setPatient",
      "outputs": [],
      "payable": false,
      "stateMutability": "nonpayable",
      "type": "function"
    }
  ],
  "bytecode": "0x608060405234801561001057600080fd5b5061062e806100206000396000f3fe608060405234801561001057600080fd5b506004361061004c5760003560e01c8063293a6ee1146100515780634ea7dec7146101ad5780637b0f9a36146101f7578063f98e2581146102ed575b600080fd5b6101ab6004803603606081101561006757600080fd5b810190808035906020019064010000000081111561008457600080fd5b82018360208201111561009657600080fd5b803590602001918460018302840111640100000000831117156100b857600080fd5b91908080601f016020809104026020016040519081016040528093929190818152602001838380828437600081840152601f19601f820116905080830192505050505050509192919290803590602001909291908035906020019064010000000081111561012557600080fd5b82018360208201111561013757600080fd5b8035906020019184600183028401116401000000008311171561015957600080fd5b91908080601f016020809104026020016040519081016040528093929190818152602001838380828437600081840152601f19601f8201169050808301925050505050505091929192905050506102f7565b005b6101b5610393565b604051808273ffffffffffffffffffffffffffffffffffffffff1673ffffffffffffffffffffffffffffffffffffffff16815260200191505060405180910390f35b6101ff6103b9565b604051808060200184815260200180602001838103835286818151815260200191508051906020019080838360005b8381101561024957808201518184015260208101905061022e565b50505050905090810190601f1680156102765780820380516001836020036101000a031916815260200191505b50838103825284818151815260200191508051906020019080838360005b838110156102af578082015181840152602081019050610294565b50505050905090810190601f1680156102dc5780820380516001836020036101000a031916815260200191505b509550505050505060405180910390f35b6102f5610511565b005b600360009054906101000a900473ffffffffffffffffffffffffffffffffffffffff1673ffffffffffffffffffffffffffffffffffffffff163373ffffffffffffffffffffffffffffffffffffffff161461035157600080fd5b82600080019080519060200190610369929190610554565b5081600060010181905550806000600201908051906020019061038d929190610554565b50505050565b600360009054906101000a900473ffffffffffffffffffffffffffffffffffffffff1681565b606060006060600080016000600101546000600201828054600181600116156101000203166002900480601f0160208091040260200160405190810160405280929190818152602001828054600181600116156101000203166002900480156104635780601f1061043857610100808354040283529160200191610463565b820191906000526020600020905b81548152906001019060200180831161044657829003601f168201915b50505050509250808054600181600116156101000203166002900480601f0160208091040260200160405190810160405280929190818152602001828054600181600116156101000203166002900480156104ff5780601f106104d4576101008083540402835291602001916104ff565b820191906000526020600020905b8154815290600101906020018083116104e257829003601f168201915b50505050509050925092509250909192565b33600360006101000a81548173ffffffffffffffffffffffffffffffffffffffff021916908373ffffffffffffffffffffffffffffffffffffffff160217905550565b828054600181600116156101000203166002900490600052602060002090601f016020900481019282601f1061059557805160ff19168380011785556105c3565b828001600101855582156105c3579182015b828111156105c25782518255916020019190600101906105a7565b5b5090506105d091906105d4565b5090565b6105f691905b808211156105f25760008160009055506001016105da565b5090565b9056fea265627a7a72315820f4007baddae4859915ecf36756b90735c8eb2f79cc32258e4aaea42bb14d6d9864736f6c63430005100032",
  "source": "pragma solidity ^0.5.16;\r\n\r\ncontract c {\r\n\r\n  struct Patient{\r\n\r\n   string name;\r\n   int age;\r\n   string gender;\r\n }\r\n\r\n // uint id;\r\n Patient private patient;\r\n address public recordOwner;\r\n\r\n  modifier onlyOwner() {\r\n  require(msg.sender == recordOwner);\r\n  _;\r\n}\r\n\r\n\r\nfunction PatientRecord() public{\r\n  recordOwner = msg.sender;\r\n}\r\n\r\nfunction getPatient() public view returns (string memory name, int age,\r\n  string memory gender){\r\n  return (patient.name, patient.age, patient.gender);\r\n  }\r\n\r\n  function setPatient (string memory _name, int _age, string memory  _gender) public onlyOwner{\r\n      patient.name = _name;\r\n      patient.age = _age;\r\n      patient.gender = _gender;\r\n  }\r\n\r\n}\r\n",
  "sourcePath": "C:/Users/cmack/OneDrive/Desktop/uni stuff/IT Prof 2 CW/Project/Truffle/contracts/c.sol",
  "compiler": {
    "name": "solc",
    "version": "0.5.16+commit.9c3226ce.Emscripten.clang"
  },
  "schemaVersion": "3.3.3",
  "updatedAt": "2021-01-21T17:16:13.553Z",
  "networkType": "ethereum",
  "devdoc": {
    "methods": {}
  },
  "userdoc": {
    "methods": {}
  }
}