{
  "contractName": "healthSmartContract",
  "abi": [
    {
      "constant": true,
      "inputs": [],
      "name": "recordOwner",
      "outputs": [
        {
          "internalType": "address",
          "name": "",
          "type": "address"
        }
      ],
      "payable": false,
      "stateMutability": "view",
      "type": "function"
    },
    {
      "constant": false,
      "inputs": [],
      "name": "patientRecord",
      "outputs": [],
      "payable": false,
      "stateMutability": "nonpayable",
      "type": "function"
    },
    {
      "constant": true,
      "inputs": [],
      "name": "getPatient",
      "outputs": [
        {
          "internalType": "string",
          "name": "name",
          "type": "string"
        },
        {
          "internalType": "int256",
          "name": "age",
          "type": "int256"
        },
        {
          "internalType": "string",
          "name": "gender",
          "type": "string"
        }
      ],
      "payable": false,
      "stateMutability": "view",
      "type": "function"
    },
    {
      "constant": false,
      "inputs": [
        {
          "internalType": "string",
          "name": "_name",
          "type": "string"
        },
        {
          "internalType": "int256",
          "name": "_age",
          "type": "int256"
        },
        {
          "internalType": "string",
          "name": "_gender",
          "type": "string"
        }
      ],
      "name": "setPatient",
      "outputs": [],
      "payable": false,
      "stateMutability": "nonpayable",
      "type": "function"
    }
  ],
  "bytecode": "0x608060405234801561001057600080fd5b506105d4806100206000396000f3fe608060405234801561001057600080fd5b506004361061004c5760003560e01c8063293a6ee1146100515780634ea7dec7146101ad5780637b0f9a36146101f7578063d85c9481146102ed575b600080fd5b6101ab6004803603606081101561006757600080fd5b810190808035906020019064010000000081111561008457600080fd5b82018360208201111561009657600080fd5b803590602001918460018302840111640100000000831117156100b857600080fd5b91908080601f016020809104026020016040519081016040528093929190818152602001838380828437600081840152601f19601f820116905080830192505050505050509192919290803590602001909291908035906020019064010000000081111561012557600080fd5b82018360208201111561013757600080fd5b8035906020019184600183028401116401000000008311171561015957600080fd5b91908080601f016020809104026020016040519081016040528093929190818152602001838380828437600081840152601f19601f8201169050808301925050505050505091929192905050506102f7565b005b6101b5610339565b604051808273ffffffffffffffffffffffffffffffffffffffff1673ffffffffffffffffffffffffffffffffffffffff16815260200191505060405180910390f35b6101ff61035f565b604051808060200184815260200180602001838103835286818151815260200191508051906020019080838360005b8381101561024957808201518184015260208101905061022e565b50505050905090810190601f1680156102765780820380516001836020036101000a031916815260200191505b50838103825284818151815260200191508051906020019080838360005b838110156102af578082015181840152602081019050610294565b50505050905090810190601f1680156102dc5780820380516001836020036101000a031916815260200191505b509550505050505060405180910390f35b6102f56104b7565b005b8260008001908051906020019061030f9291906104fa565b508160006001018190555080600060020190805190602001906103339291906104fa565b50505050565b600360009054906101000a900473ffffffffffffffffffffffffffffffffffffffff1681565b606060006060600080016000600101546000600201828054600181600116156101000203166002900480601f0160208091040260200160405190810160405280929190818152602001828054600181600116156101000203166002900480156104095780601f106103de57610100808354040283529160200191610409565b820191906000526020600020905b8154815290600101906020018083116103ec57829003601f168201915b50505050509250808054600181600116156101000203166002900480601f0160208091040260200160405190810160405280929190818152602001828054600181600116156101000203166002900480156104a55780601f1061047a576101008083540402835291602001916104a5565b820191906000526020600020905b81548152906001019060200180831161048857829003601f168201915b50505050509050925092509250909192565b33600360006101000a81548173ffffffffffffffffffffffffffffffffffffffff021916908373ffffffffffffffffffffffffffffffffffffffff160217905550565b828054600181600116156101000203166002900490600052602060002090601f016020900481019282601f1061053b57805160ff1916838001178555610569565b82800160010185558215610569579182015b8281111561056857825182559160200191906001019061054d565b5b509050610576919061057a565b5090565b61059c91905b80821115610598576000816000905550600101610580565b5090565b9056fea265627a7a723158209e36ac3eedb1960491d3a0c229fb656c6f7bedf3a3cfa6cdc54cc0b2c2ad1fc564736f6c63430005100032",
  "source": "pragma solidity ^0.5.16;\r\n\r\ncontract healthSmartContract {\r\n\r\n  struct Patient{\r\n\r\n   string name;\r\n   int age;\r\n   string gender;\r\n }\r\n\r\n Patient private patient;\r\n address public recordOwner;\r\n\r\n  modifier onlyOwner() {\r\n  require(msg.sender == recordOwner);\r\n  _;\r\n}\r\n\r\n\r\nfunction patientRecord() public{\r\n  recordOwner = msg.sender;\r\n}\r\n\r\nfunction getPatient() public view returns (string memory name, int age,\r\n  string memory gender){\r\n  return (patient.name, patient.age, patient.gender);\r\n  }\r\n\r\n  function setPatient (string memory _name, int _age, string memory  _gender) public{\r\n      patient.name = _name;\r\n      patient.age = _age;\r\n      patient.gender = _gender;\r\n  }\r\n\r\n}\r\n",
  "sourcePath": "C:/Users/cmack/OneDrive/Desktop/uni stuff/IT Prof 2 CW/Project/Truffle/contracts/healthSmartContract.sol",
  "compiler": {
    "name": "solc",
    "version": "0.5.16+commit.9c3226ce.Emscripten.clang"
  },
  "schemaVersion": "3.3.3",
  "updatedAt": "2021-01-21T19:29:58.226Z",
  "networkType": "ethereum",
  "devdoc": {
    "methods": {}
  },
  "userdoc": {
    "methods": {}
  }
}